S0250000435F5475726E5F4F4E5F4C45445F6F6E5F627574746F6E5F70726573732E73726563C1
S11300000C9434000C9452000C943E000C943E006A
S11300100C943E000C943E000C943E000C943E0064
S11300200C943E000C943E000C943E000C943E0054
S11300300C943E000C943E000C943E000C943E0044
S11300400C943E000C943E000C943E000C943E0034
S11300500C943E000C943E000C943E000C943E0024
S11300600C943E000C943E0011241FBECFEFD8E048
S1130070DEBFCDBF0E944F000C946F000C940000B3
S113008084B1826084B985B1826085B98AB11AB8B5
S11300908BB184608BB981E08DBB789408950E9404
S11300A04000FFCF1F920F920FB60F9211242F938F
S11300B08F939F9395B182E0892785B92FEF83ECC5
S11300C099E0215080409040E1F700C000009F91EA
S11300D08F912F910F900FBE0F901F901895F89449
S10500E0FFCF4C
S9030000FC
